:100000000C9438000C9455000C9455000C94DF2689
:100010000C9455000C9455000C9455000C9455000C
:100020000C9455000C94B8260C9455000C94550073
:100030000C9455000C9491260C9455000C9455008A
:100040000C946A260C9455000C9455000C945500A1
:100050000C9455000C9455000C9455000C945500CC
:100060000C9455000C9455000C9455000C945500BC
:1000700011241FBECFEFD0E1DEBFCDBF13E0A0E063
:10008000B1E0EAE6F9E602C005900D92AE33B107A1
:10009000D9F726E0AEE3B3E001C01D92A73FB20757
:1000A000E1F70E9406270C948E340C940000E62F92
:1000B00090E7980F933020F098E6980F943028F44A
:1000C000E43C09F456C080E0089590EB980F93301B
:1000D00020F098EA980F943010F4E63DF2CF8F3D6F
:1000E000E1F46A3909F447C0663909F446C0603959
:1000F00009F445C0663C09F444C0683809F443C0BB
:100100006A3C09F442C06C3C09F441C06E3809F401
:1001100040C0623DC1F68CE608958F3941F4E35842
:10012000EA3588F6F0E0EF5AFD4F808108958F356B
:1001300039F4E558E83538F6F0E0E750FE4FF5CFF2
:100140008F3109F66D3D39F1653C39F1633939F18B
:10015000653939F1693C39F16B3839F16F3C39F166
:10016000613D39F1673839F16D3809F0ACCF87E678
:10017000089581E1089585E008958DE5089589E663
:10018000089583E7089584E6089586E6089588E64D
:1001900008958AE6089586E0089588E008958BE33F
:1001A00008958BE5089585E6089584E7089585E729
:1001B00008958FE6089581E60895CF92DF92EF9239
:1001C000FF926A017B01F901A701662777274BB9E6
:1001D00077276F2D5E2D4D2D48B9C2B82FE325B975
:1001E00024E325B911B824E225B9DC018D919C9155
:1001F000009771F480B180838FE385B91BB88DE3DC
:1002000085B98FEF81B9FF90EF90DF90CF9008957F
:1002100000000197EDCF0C94DD00CF92DF92EF92BA
:10022000FF929A01C0906603D0906703E090680344
:10023000F0906903AB01BC014C0D5D1D6E1D7F1D6F
:100240008AE693E0FF90EF90DF90CF900C94DD0072
:10025000CF92DF92EF92FF929A01C0904B03D09021
:100260004C03E0904D03F0904E03AB01BC014C0DEC
:100270005D1D6E1D7F1D8FE493E0FF90EF90DF907A
:10028000CF900C94DD00CF92DF92EF92FF926A0143
:100290007B01A701662777274BB977276F2D5E2D46
:1002A0004D2D48B9C2B83FE335B935E335B922B968
:1002B00025E125B9FC0182819381009751F48FE3F8
:1002C00085B91BB88DE385B9FF90EF90DF90CF9093
:1002D000089500000197F1CF0C944301CF92DF9273
:1002E000EF92FF92242FC0906603D0906703E090B6
:1002F0006803F0906903AB01BC014C0D5D1D6E1DE0
:100300007F1D8AE693E0FF90EF90DF90CF900C94F2
:100310004301CF92DF92EF92FF92242FC0904B03C4
:10032000D0904C03E0904D03F0904E03AB01BC0124
:100330004C0D5D1D6E1D7F1D8FE493E0FF90EF90CF
:10034000DF90CF900C9443016F927F928F929F9297
:10035000AF92BF92CF92DF92EF92FF920F931F93D3
:10036000CF93DF933C016A017B0101ED16E0E801C8
:10037000812C912C540189918115B1F04091AD06E9
:100380005091AE066091AF067091B006480D591DB0
:100390006A1D7B1DF401EF54F94F2081C3010E94B7
:1003A0004301FE01319710828FEF881A980AA80A3C
:1003B000B80AE0E28E169104A104B104E1F6C1EBA3
:1003C000D6E0460157019E01B501A401C3010E9478
:1003D000DD00F80111928F01FFEF8F1A9F0AAF0A1B
:1003E000BF0A219686E0C13DD80769F7C092AD06E5
:1003F000D092AE06E092AF06F092B006E0E2CE0EEA
:10040000D11CE11CF11CC092A906D092AA06E09270
:10041000AB06F092AC06DF91CF911F910F91FF9048
:10042000EF90DF90CF90BF90AF909F908F907F9094
:100430006F900895CF92DF92EF92FF920F931F93E8
:10044000CF93DF93E9010091AD061091AE062091A4
:10045000AF063091B006401751076207730718F1D5
:10046000C090A906D090AA06E090AB06F090AC062A
:100470004C155D056E057F05B0F4DB01CA01801BDC
:10048000910BA20BB30B8C019D010F54194FD80196
:100490008C918883DF91CF911F910F91FF90EF9006
:1004A000DF90CF9008950E94A4018091B106F1CF12
:1004B000CF92DF92EF92FF920F931F93CF93C22FB1
:1004C0000091AD061091AE062091AF063091B006B6
:1004D000401751076207730710F1C090A906D0902A
:1004E000AA06E090AB06F090AC064C155D056E05D3
:1004F0007F05A8F4401B510B620B730BFA01EF54FC
:10050000F94FC0834F52594F81E0FA018083CF9158
:100510001F910F91FF90EF90DF90CF9008950E9470
:10052000A401C093B10681E08093D106F0CF48E2E8
:1005300050E060E270E08CE796E00C94AF33CF932C
:10054000792FC62F462F50E0682F88E696E00E944C
:10055000A633C093E601CF910895FC0190819F7D61
:10056000915481E09A3108F080E00895FC01808187
:100570009FE9980F9A3110F4805280830895FC010E
:1005800080819FEB980F9A3110F4805E80830895EC
:100590004F925F926F927F929F92AF92BF92CF9253
:1005A000DF92EF92FF920F931F93CF93DF93CDB71C
:1005B000DEB72A970FB6F894DEBF0FBECDBF6B0132
:1005C0007C018A01C114D104E104F104E1F480E367
:1005D000FA01808399249394892D2A960FB6F89472
:1005E000DEBF0FBECDBFDF91CF911F910F91FF9066
:1005F000EF90DF90CF90BF90AF909F907F906F90E3
:100600005F904F900895912C8AE0482E512C612CD8
:10061000712CCE0101965C01C701B601A3019201C4
:100620000E94FF31E92DEA0DFB2DF11D9394605DD1
:100630006083D701C60169017A010A97A105B10556
:1006400058F7D501A90DB11DF801AA16BB0621F274
:100650008E918193FACF0F931F938B019C01FA0126
:10066000485F5F4FD901C8016CE1B695A795979592
:1006700087956A95D1F78A3078F4805D819384E01C
:10068000000F111F221F331F8A95D1F74E175F07E6
:1006900049F71F910F910895895AF0CFCF92DF92B9
:1006A000EF92FF920F931F93CF93DF93CDB7DEB7F7
:1006B00064970FB6F894DEBF0FBECDBF6C01062F56
:1006C0007A01122F4AE050E060E270E0CE0101961C
:1006D0000E94AF334AE050E060E270E0CE010B963A
:1006E0000E94AF33402F50E0B601CE0101960E9428
:1006F000A633412F50E0B701CE010B960E94A633DE
:10070000FE013196DE011B96CD0131912D91321300
:1007100013C0E817F907C9F781E064960FB6F8949B
:10072000DEBF0FBECDBFDF91CF911F910F91FF9024
:10073000EF90DF90CF90089580E0EFCFCF93DF93DD
:100740000F92CDB7DEB78983CE0101960E94BF021A
:1007500029812837E9F46AE172E048E552E080E057
:1007600090E0DC012093AB047093A6046093A50491
:100770005093A4044093A3048093A7049093A804E7
:10078000A093A904B093AA040F90DF91CF9108958C
:10079000422F4D55550BCA01092E000CAA0BBB0B5D
:1007A000DC01992788276BE071E045EF50E1DACF53
:1007B000CF93DF930F92CDB7DEB78091AB048983DF
:1007C000CE0101960E94B60289810F90DF91CF91F0
:1007D0000895CF92DF92EF92FF92242FC090A7044A
:1007E000D090A804E090A904F090AA04AB01BC0149
:1007F0004C0D5D1D6E1D7F1DE091A304F091A404BE
:100800008EE994E0FF90EF90DF90CF900994CF9223
:10081000DF92EF92FF929A01C090A704D090A804B3
:10082000E090A904F090AA04AB01BC014C0D5D1D41
:100830006E1D7F1DE091A504F091A6048EE994E061
:10084000FF90EF90DF90CF900994CF92DF92EF92DC
:10085000FF920F931F93CF93DF9300D000D0CDB7BB
:10086000DEB78E010F5F1F4F81E1C82ED12CE12C26
:10087000F12CA801C701B6010E9407048FEFC81A26
:10088000D80AE80AF80A0F5F1F4F85E1C816D1049D
:10089000E104F10471F769817A818B819C810F9069
:1008A0000F900F900F90DF91CF911F910F91FF90BC
:1008B000EF90DF90CF900895AF92BF92CF92DF92EA
:1008C000EF92FF920F931F93CF93DF9300D000D04E
:1008D000CDB7DEB7655F7F4F8F4F9F4F6B017C01B8
:1008E0008E010F5F1F4F5E0185E0A80EB11CA801AD
:1008F000C701B6010E9407042FEFC21AD20AE20A0A
:10090000F20A0F5F1F4F0A151B0589F769817A816B
:100910008B819C810F900F900F900F90DF91CF9162
:100920001F910F91FF90EF90DF90CF90BF90AF900D
:100930000895AF92BF92CF92DF92EF92FF920F9302
:100940001F93CF93DF9300D000D0CDB7DEB76D5E9D
:100950007F4F8F4F9F4F6B017C018E010F5F1F4FA9
:100960005E0185E0A80EB11CA801C701B6010E9476
:1009700007042FEFC21AD20AE20AF20A0F5F1F4FD2
:100980000A151B0589F769817A818B819C810F90FB
:100990000F900F900F90DF91CF911F910F91FF90CB
:1009A000EF90DF90CF90BF90AF900895AF92BF923D
:1009B000CF92DF92EF92FF920F931F93CF93DF932B
:1009C00000D000D0CDB7DEB7645E7F4F8F4F9F4F12
:1009D0006B017C018E010F5F1F4F5E0185E0A80E49
:1009E000B11CA801C701B6010E9407042FEFC21A6B
:1009F000D20AE20AF20A0F5F1F4F0A151B0589F798
:100A000069817A818B819C810F900F900F900F905C
:100A1000DF91CF911F910F91FF90EF90DF90CF90DA
:100A2000BF90AF900895AF92BF92CF92DF92EF92B6
:100A3000FF920F931F93CF93DF9300D000D0CDB7D9
:100A4000DEB729833A834B835C838E010F5F1F4F90
:100A5000645E7F4F8F4F9F4F6B017C015E0185E08D
:100A6000A80EB11CF80141918F01C701B6010E9487
:100A7000E903FFEFCF1ADF0AEF0AFF0A0A151B0589
:100A800089F70F900F900F900F90DF91CF911F91EA
:100A90000F91FF90EF90DF90CF90BF90AF900895AF
:100AA000CF92DF92EF92FF920F931F93CF93DF933A
:100AB000EA016F5F7F4F8F4F9F4F6B017C0100E01A
:100AC00010E0AE01400F511FC701B6010E9407049C
:100AD0000F5F1F4F8FEFC81AD80AE80AF80A0A30CA
:100AE000110579F7DF91CF911F910F91FF90EF9052
:100AF000DF90CF900895AF92BF92CF92DF92EF92A6
:100B0000FF920F931F93CF93DF930F92CDB7DEB772
:100B1000B62EC72ED82EE92EEEE5F4E080E090E068
:100B20004191519161917191F82EA92E0196452B19
:100B3000462B472BA9F7AE014F5F5F4F6B2D7C2DE6
:100B40008D2D9E2D0E9407048981853559F50F2D25
:100B50001A2D6B2D7C2D8D2D9E2D0E945C04F8018D
:100B6000EE0FFF1FEE0FFF1FDF01A25EBB4F6D9365
:100B70007D938D939C931397E25AFB4FB082C18271
:100B8000D282E3826F2D70E080E090E00F90DF91E1
:100B9000CF911F910F91FF90EF90DF90CF90BF907A
:100BA000AF9008956FEF7FEFCB01F0CF462F572F17
:100BB000BC014131510561057105E0F4440F551F39
:100BC000440F551FFA01E25AFB4F80819181A281A7
:100BD000B381892B8A2B8B2B69F0108211821282B0
:100BE0001382425E5B4FFA011082118212821382DD
:100BF00081E0089580E008954F925F926F927F9216
:100C00008F929F92AF92BF92CF92DF92EF92FF921C
:100C10000F931F93CF93DF9300D000D000D0CDB7B8
:100C2000DEB74B015C013A0109831A832B833C83B5
:100C300021E182169104A104B104C0F080E00F907C
:100C40000F900F900F900F900F90DF91CF911F9109
:100C50000F91FF90EF90DF90CF90BF90AF909F905B
:100C60008F907F906F905F904F900895AB01440FED
:100C7000551F440F551F5E834D83FA01E25AFB4F07
:100C80006081718182819381611571058105910572
:100C9000A9F20E945C0429813A814B815C81621730
:100CA00073078407950750F28301C12CD12C76017C
:100CB000412C512C3201812C912C540189819A8133
:100CC000AB81BC818C159D05AE05BF0511F481E09B
:100CD000B6CF8091610190916201A0916301B091C2
:100CE0006401AC01BD01415051096109710944150C
:100CF00055056605770541F43FEF831A930AA30A69
:100D0000B30A412C512C3201F80121918F01019637
:100D1000A11DB11DED81FE81E25AFB4F4081518141
:100D200062817381840F951FA61FB71FBC01CD017F
:100D3000680D791D8A1D9B1D422F0E94E903FFEF5C
:100D40004F1A5F0A6F0A7F0A2FEF821A920AA20ACD
:100D5000B20A3FEFC31AD30AE30AF30AAFCF2F92C6
:100D60003F924F925F926F927F928F929F92AF923B
:100D7000BF92CF92DF92EF92FF920F931F93CF9388
:100D8000DF9300D000D000D0CDB7DEB76B017C017F
:100D90001A014801590121E1C216D104E104F1040C
:100DA000D0F080E00F900F900F900F900F900F9069
:100DB000DF91CF911F910F91FF90EF90DF90CF9037
:100DC000BF90AF909F908F907F906F905F904F906B
:100DD0003F902F900895CB01880F991F880F991F7E
:100DE0009E838D83FC01E25AFB4F60817181828179
:100DF0009381611571058105910599F20E945C044A
:100E0000681579058A059B0560F2ED81FE81E25E39
:100E1000FB4FC080D180E280F380D701C6010196EC
:100E2000A11DB11D89839A83AB83BC838816990663
:100E3000AA06BB0620F489829A82AB82BC82412C2E
:100E4000512C3201C12CD12C7601812C912C5401D2
:100E500089819A81AB81BC8184159505A605B7056A
:100E600011F481E09FCF8091610190916201A09186
:100E70006301B09164018C019D01015011092109A8
:100E800031090C151D052E053F0541F42FEF821A7F
:100E9000920AA20AB20AC12CD12C7601A101440DFA
:100EA000551DBC01CD016F5F7F4F8F4F9F4FED816F
:100EB000FE81E25AFB4F0081118122813381600F54
:100EC000711F821F931F680D791D8A1D9B1D0E9433
:100ED00007048FEFC81AD80AE80AF80A9FEF891AA0
:100EE000990AA90AB90AAFEF4A1A5A0A6A0A7A0A8B
:100EF000AFCF08951F93CF93DF930F92CDB7DEB797
:100F00009E012F5F3F4F40E050E0BA0189E194E03D
:100F10000E94DD00198117FF05C0E0910904F091DE
:100F20000A04099516FF05C0E0910B04F0910C042A
:100F3000099515FF05C0E0910D04F0910E04099587
:100F400014FF05C0E0910F04F0911004099513FF00
:100F500005C0E0911104F0911204099512FF05C03B
:100F6000E0911304F0911404099511FF05C0E0917C
:100F70001504F0911604099510FF09C0E0911704BB
:100F8000F09118040F90DF91CF911F9109940F9069
:100F9000DF91CF911F91089508959B01FC0180E09E
:100FA00090E0309711F4CF01089582179307D9F399
:100FB00001960190F081E02DF4CF682F70E08091D0
:100FC000AE049091AF040E94CD07FC01892B19F06B
:100FD0000280F381E02DCF010895682F70E08091A9
:100FE000AC049091AD040E94CD07FC0182819381F5
:100FF0000895AF92BF92CF92DF92EF92FF920F933C
:101000001F93CF93DF93B82EA92E062FE091AC0447
:10101000F091AD04C12CD12C3097C9F40D2C000CEB
:10102000EE08FF0810E01C151D041E041F04B0F09C
:10103000D0E0C0E08D2F9C2FDF91CF911F910F91B9
:10104000FF90EF90DF90CF90BF90AF9008958FEF1B
:10105000C81AD80A0190F081E02DDECF812F0E94BE
:10106000ED07D82FC92F202F4B2D5A2D602F0E940E
:101070004E038130F9F21F5FD6CF0F931F93CF93AA
:10108000DF930F92CDB7DEB74983AE014F5F5F4F5D
:101090000E94AF060F90DF91CF911F910F9108959D
:1010A0000F931F93CF93DF930F92CDB7DEB7498392
:1010B000AE014F5F5F4F0E94FC050F90DF91CF9113
:1010C0001F910F9108950C94D605CF92DF92EF9265
:1010D000FF929A01E091B204F091B304C584D684E2
:1010E000E784F088AB01BC014C0D5D1D6E1D7F1DBA
:1010F000CF014196FF90EF90DF90CF900C94DD00F0
:10110000CF92DF92EF92FF92242FE091B204F09100
:10111000B304C584D684E784F088AB01BC014C0DD0
:101120005D1D6E1D7F1DCF014196FF90EF90DF90FA
:10113000CF900C944301EF92FF920F931F93CF93A4
:10114000DF930F92CDB7DEB7E0907806F090790686
:10115000F70145855685678570898E010F5F1F4FA2
:10116000980186E893E00E94DD008981803141F496
:101170000F90DF91CF911F910F91FF90EF90089505
:10118000F70145855685678570899801EACFCF9329
:10119000C82F80937B0660937A060E949B08E0919B
:1011A0007806F0917906018CF28DE02D4C2F61E0EC
:1011B00070E080E090E00995E0917806F091790682
:1011C000018CF28DE02D40917A0662E070E080E0C3
:1011D00090E0CF910994CF93C82F80937A060E9414
:1011E0009B08E0917806F0917906018CF28DE02D54
:1011F0004C2F62E070E080E090E0CF9109940E9473
:101200009B08E0917806F0917906018CF28DE02D33
:1012100040E063E070E080E090E009940E949B0869
:10122000E0917806F0917906018CF28DE02D41E095
:101230006FE070E080E090E009946F927F928F926F
:101240009F92AF92BF92CF92DF92EF92FF920F9355
:101250001F93CF93DF93CDB7DEB72C970FB6F894DB
:10126000DEBF0FBECDBF3B014C0159016A010E9498
:101270009B08C301D40189839A83AB83BC83C501D6
:10128000D6018D839E83AF83B887C701D801898734
:101290009A87AB87BC87E0917806F0917906018C3C
:1012A000F28DE02D44E067E070E080E090E0099589
:1012B000CE0101966C017E0195E0E90EF11C8E01D4
:1012C000075F1F4F8CE1882E912CA12CB12CF601C9
:1012D00041916F01E0917806F0917906018CF28DD1
:1012E000E02DC501B4010995F70141917F01C501C8
:1012F000B4016C5F7F4F8F4F9F4FE0917806F09164
:101300007906018CF28DE02D0995F80141918F014C
:10131000C501B401685F7F4F8F4F9F4FE091780602
:10132000F0917906018CF28DE02D0995FFEF8F1A6F
:101330009F0AAF0ABF0A80E288169104A104B10493
:1013400031F6E0917806F0917906018CF28DE02D6E
:1013500040E067E070E080E090E02C960FB6F894F3
:10136000DEBF0FBECDBFDF91CF911F910F91FF90D8
:10137000EF90DF90CF90BF90AF909F908F907F9035
:101380006F900994CF92DF92EF92FF920F931F9389
:10139000CF93DF93F82ED92FC62F0E949B08E091A0
:1013A0007806F0917906018CF28DE02D40917B0654
:1013B00061E070E080E090E009950F2D1D2F80E145
:1013C000C82ED12CE12CF12CC150DD0BC601409769
:1013D0008C179D074CF0DF91CF911F910F91FF90DB
:1013E000EF90DF90CF900895F80141918F01E09147
:1013F0007806F0917906018CF28DE02DC701B601D7
:10140000099580917A068F5F80937A06FFEFCF1A55
:10141000DF0AEF0AFF0ADACFCF93C82F0E949B089A
:10142000E0917806F0917906018CF28DE02D4091E3
:101430007B0661E070E080E090E00995E09178063D
:10144000F0917906018CF28DE02D40917A0662E0F0
:1014500070E080E090E00995E0917806F0917906DF
:10146000018CF28DE02D4C2F60E170E080E090E087
:10147000099580917A068F5F80937A06CF910895BF
:101480009F92AF92BF92CF92DF92EF92FF920F9313
:101490001F93CF93DF93CDB7DEB72A970FB6F8949B
:1014A000DEBF0FBECDBF6B017C01CE0101965C019A
:1014B000AC01C701B6010E94C802182F9A2C0B2D4F
:1014C000CD28CE28CF28A1F480E32A960FB6F89431
:1014D000DEBF0FBECDBFDF91CF911F910F91FF9067
:1014E000EF90DF90CF90BF90AF909F900C940C0A3C
:1014F000811101C011E00E949B08E0917806F091F3
:101500007906018CF28DE02D40917B0661E070E060
:1015100080E090E00995E0917806F0917906018CE1
:10152000F28DE02D40917A0662E070E080E090E07C
:101530000995A92CB02E80E1C82ED12CE12CF12CDC
:10154000F50141915F01E0917806F0917906018CF7
:10155000F28DE02DC701B6010995FFEFCF1ADF0A22
:10156000EF0AFF0A80EF8C0D811750F380917A0605
:101570008F5F1695810F80937A062A960FB6F8949E
:10158000DEBF0FBECDBFDF91CF911F910F91FF90B6
:10159000EF90DF90CF90BF90AF909F900C94EB08AE
:1015A0000E949B0840917B06E0917806F0917906B5
:1015B000018CF28DE02D473078F44F5F40937B062D
:1015C00061E070E080E090E0099510927A0660E0BA
:1015D00080917B060C94C70841E065E070E080E0F4
:1015E00090E0F2CFDF92EF92FF920F931F93CF9391
:1015F000DF93CDB7DEB7CA5CD1090FB6F894DEBF72
:101600000FBECDBFFC01108180ED810F8A3010F438
:101610008093B104CF010E94AD02813029F41436C9
:1016200009F04CC01092B004E12CF12C80EAD82EC5
:101630008E010F5F1F4FA8014E0D5F1D8091B104F9
:10164000B701D89E600D711D1124072E000C880B68
:10165000990B0E9407048FEFE81AF80AE0EAEE16E9
:10166000F10431F78091B1048F5F8093B1048091D0
:10167000B0047E01FDE8EF0EF11C8130D1F5F12CB4
:10168000F80161918F0170E080E090E0AE01475376
:101690005F4F0E942B0363E0CE0187539F4F0E9450
:1016A000C209EE24E394EF0CF9E0FF1619F083E190
:1016B000F8120AC00E94D00AFE2CE2CF183609F0B8
:1016C000B3CF8093B004B0CFFE2CEEE1EE12D8CFB2
:1016D0000E94D00AC653DF4F0FB6F894DEBF0FBE8C
:1016E000CDBFDF91CF911F910F91FF90EF90DF90D1
:1016F000089565E1C8010E94C2090E94D00A0C5EEB
:101700001F4FE016F106A9F7E5CFCF92DF92EF92D7
:10171000FF92CF93C82F0E949B08E0917806F0912A
:101720007906018CF28DE02D40917B0661E070E03E
:1017300080E090E0099580E1C82ED12CE12CF12CBD
:1017400080917A0690EF9C0D9C1738F0CF91FF9016
:10175000EF90DF90CF900C94EB08E0917806F09139
:101760007906018CF28DE02D482F62E070E080E078
:1017700090E00995E0917806F0917906018CF28D60
:10178000E02D40E2C701B601099580917A068F5F8E
:1017900080937A068FEFC81AD80AE80AF80AD0CFE1
:1017A000CF92DF92EF92FF92CF93DF930E949B083C
:1017B000E0917806F0917906018CF28DE02D409150
:1017C0007B0661E070E080E090E00995E0917806AA
:1017D000F0917906018CF28DE02D40E062E070E03E
:1017E00080E090E00995C8E6D6E080E1C82ED12CD3
:1017F000E12CF12C8091E601482F4150550B9A01C4
:10180000A60140515109421753075CF08150809363
:101810007A06DF91CF91FF90EF90DF90CF900C94FC
:10182000EB084991E0917806F0917906018CF28DF0
:10183000E02DC701B60109954FEFC41AD40AE40A96
:10184000F40AD8CF80E090E4A0E0B0E080934D06A9
:1018500090934E06A0934F06B09350068FEF9FEFE4
:10186000DC018093E1019093E201A093E301B09346
:10187000E40108958130A1F010924D0610924E06B9
:1018800010924F06109250068FEF9FEFDC0180936D
:10189000E1019093E201A093E301B093E401089584
:1018A0000C94220C0E949B08E0917806F091790636
:1018B000018CF28DE02D41E069E070E080E090E085
:1018C0000994CF93DF93CDB7DEB764970FB6F89442
:1018D000DEBF0FBECDBF0E949B08E0917806F0915D
:1018E0007906018CF28DE02D44E060E070E0CB01E0
:1018F00009950E94520C0E949B08E0917806F09195
:101900007906018CF28DE02D40E061E070E080E02E
:1019100090E00995E0917806F0917906018CF28DBE
:10192000E02D40E062E070E080E090E00995E09119
:101930007806F0917906018CF28DE02D43E067E0A6
:1019400070E080E090E0099505E611E020E1C22E0C
:10195000D12CE12CF12CD8014D918D01E09178062C
:10196000F0917906018CF28DE02DC701B601099541
:10197000BFEFCB1ADB0AEB0AFB0AE8E8CE16D1046C
:10198000E104F10441F7E0917806F0917906018CC9
:10199000F28DE02D40E067E070E080E090E0099596
:1019A000E0917806F0917906018CF28DE02D4CE003
:1019B00068E070E080E090E009957894E12CF12CEB
:1019C0008701A8019701C801B7010E941D090E9463
:1019D0009B0880E090E0A0E1B1E489839A83AB8327
:1019E000BC83E0917806F0917906018CF28DE02DB0
:1019F00044E067E070E080E090E009958E010F5FC1
:101A00001F4F98E2C92ED12CE12CF12C0B8B1C8B93
:101A1000D8014D918D01E0917806F0917906018C05
:101A2000F28DE02DC701B6010995BFEFCB1ADB0A95
:101A3000EB0AFB0AECE2CE16D104E104F10441F713
:101A4000E0917806F0917906018CF28DE02D40E06E
:101A500067E070E080E090E00995612C512C412C0A
:101A6000312CA12C912C812C712C212CD12CC12C0E
:101A7000B12C20E030E040E85FE3622D7D2D8C2D1D
:101A80009B2D0E94D133262ED72EC82EB92E23E3AC
:101A900033E343EB5FE36A2D792D882D972D0E9468
:101AA000D133A62E972E882E792E26E636E646EEE0
:101AB0005FE3662D752D842D932D0E94D133662E04
:101AC000572E482E392E0E949B08E0917806F091FF
:101AD0007906018CF28DE02D41E06AE070E080E053
:101AE00090E00995E62CF52C042D132D2A2D392D87
:101AF000482D572D622D7D2D8C2D9B2D0E941D096B
:101B00000E949B0880E090E0A0E0B0E889879A8777
:101B1000AB87BC871D821E821F82188619821A829B
:101B20001B821C82E0917806F0917906018CF28D7F
:101B3000E02D44E067E070E080E090E00995DE0190
:101B40001996B88BAF87FE013596FA8BE98BFB8926
:101B5000FD878C898E8710E1E12EF12C00E010E0EA
:101B6000AF85B8894D91B88BAF87E0917806F09139
:101B70007906018CF28DE02DC801B7010995E9893C
:101B8000FA894191FA8BE98BC801B7016C5F7F4FED
:101B90008F4F9F4FE0917806F0917906018CF28D7E
:101BA000E02D0995AD85BE854D91BE87AD87C801F5
:101BB000B701685F7F4F8F4F9F4FE0917806F0919C
:101BC0007906018CF28DE02D0995BFEFEB1AFB0A27
:101BD0000F4F1F4FE4E1EE16F1040105110509F066
:101BE000BFCFE0917806F0917906018CF28DE02D5F
:101BF00040E067E070E080E090E009950E949B087B
:101C0000E0917806F0917906018CF28DE02D40E0AC
:101C10006CE070E080E090E00995E0917806F0914A
:101C20007906018CF28DE02D4CE06DE070E080E0F3
:101C300090E00995E0917806F0917906018CF28D9B
:101C4000E02D41E06EE070E080E090E009950E94B8
:101C50009B080E940E090E94520C0BCFCF92DF927C
:101C6000EF92FF92CF930E949B08C0E0E09178062C
:101C7000F0917906018CF28DE02D4C2F61E070E03F
:101C800080E090E00995E0917806F0917906018C6A
:101C9000F28DE02D40E062E070E080E090E0099598
:101CA00080E1C82ED12CE12CF12CE0917806F09146
:101CB0007906018CF28DE02D40E2C701B60109954D
:101CC0008FEFC81AD80AE80AF80A85E2C816D104C4
:101CD000E104F10451F7CF5FC83041F6CF91FF9096
:101CE000EF90DF90CF900C940E09CF93DF9300D04C
:101CF00000D000D0CDB7DEB76B017C0149015A019D
:101D00000E942E0E60E080E00E94C70863E180E23E
:101D100091E00E94C20960E086E00E94C70889E065
:101D2000C816D104E10480E1F8060CF041C0E4E0FB
:101D3000CE16D104E104E0E8FE0609F446C069E0ED
:101D400084E091E0F2E0CF16D104E104F0E1FF0677
:101D5000C9F160E087E00E94C70863E081E091E09C
:101D60000E94C209C80CD91CEA1CFB1CC982DA8279
:101D7000EB82FC827E01E5E0EE0EF11C12E06701D1
:101D8000612F87E00E94C708F70162917F0170E030
:101D900080E090E0A6010E942B0363E0C6010E9450
:101DA000C2091E5F1A3061F70E94FF080000FECFD3
:101DB00087E0C816D104E10480E5F80651F66AE030
:101DC00086E191E00E94C209C4CF69E08DE091E014
:101DD000F9CFCF93DF93CDB7DEB72A970FB6F8943C
:101DE000DEBF0FBECDBFAE014F5F5F4F0E945005FB
:101DF0002A960FB6F894DEBF0FBECDBFDF91CF910C
:101E000008951092A8061092A4061092A5061092AA
:101E1000A6061092A7060E9425046093A40670935C
:101E2000A5068093A6069093A7060E9425040C940D
:101E3000E90E4F925F926F927F928F929F92AF9234
:101E4000BF92CF92DF92EF92FF920F931F93CF93A7
:101E5000DF9300D000D0CDB7DEB76B017C01260147
:101E600037018BE0480E511C611C711C8E010F5F05
:101E70001F4F5E0185E0A80EB11CA801C301B2018D
:101E80000E9407048FEF481A580A680A780A0F5F01
:101E90001F4F0A151B0589F7809061019090620120
:101EA000A0906301B090640169817A818B819C81EB
:101EB000680D791D8A1D9B1D625071098109910968
:101EC000A501940121503109410951090E94FF31B6
:101ED00029013A01812C912C5401481459046A04B7
:101EE0007B04A9F40F900F900F900F90DF91CF918A
:101EF0001F910F91FF90EF90DF90CF90BF90AF9028
:101F00009F908F907F906F905F904F900895609119
:101F10006101709162018091630190916401A5015A
:101F200094010E94E33197018601080D191D2A1DB5
:101F30003B1D600F711F821F931F4FE30E94E90337
:101F40008FEF881A980AA80AB80AC7CFCF92DF92F3
:101F5000EF92FF920F931F93CF93DF93EA01615F9C
:101F60007F4F8F4F9F4F6B017C0100E010E0AE016F
:101F7000400F511FC701B6010E9407040F5F1F4F9A
:101F80008FEFC81AD80AE80AF80A0430110579F761
:101F9000DF91CF911F910F91FF90EF90DF90CF9045
:101FA0000895AF92BF92CF92DF92EF92FF920F937C
:101FB0001F93CF93DF93CDB7DEB76C970FB6F8942E
:101FC000DEBF0FBECDBF2CE0EBEAF2E0CE01019602
:101FD000DC0101900D922A95E1F7C12CD12C7601FC
:101FE0005C018E01035F1F4FA8014C0D5D1DC701F1
:101FF000B6010E9407048FEFC81AD80AE80AF80A47
:10200000ACE0CA16D104E104F10459F7F501CE01A0
:1020100049965C01D8013D918D012191321791F0D3
:1020200080E06C960FB6F894DEBF0FBECDBFDF9197
:10203000CF911F910F91FF90EF90DF90CF90BF90C5
:10204000AF900895A817B90729F780E290E0A0E0C3
:10205000B0E08093610190936201A0936301B0931B
:1020600064010E9425046B017C01C114D104E104C8
:10207000F104B1F2A501C701B6010E94A60F81E0EB
:10208000998D903209F480E091E02A8D223709F48D
:1020900090E0892B9B8D973719F68111C1CF8C8DDC
:1020A000843609F0BDCF6091A4067091A506809199
:1020B000A6069091A706611571058105910571F439
:1020C0008091A806811108C0C092A406D092A506EE
:1020D000E092A606F092A70681E0A3CFA5010E9498
:1020E000A60F81E0998D903209F480E091E02A8D6D
:1020F000223709F490E0892B9B8D973709F090CF18
:1021000081118ECF8C8D843609F08ACFD9CFCF92B2
:10211000DF92EF92FF920F931F93CF93DF93EA0129
:10212000615F7F4F8F4F9F4F6B017C018A010C5F76
:102130001F4F4991C701B6010E94E9038FEFC81AEA
:10214000D80AE80AF80AC017D10799F7DF91CF91AA
:102150001F910F91FF90EF90DF90CF900895CF9255
:10216000DF92EF92FF920F931F93CF93DF936C0157
:10217000D62F7A0104E913E0C0E0C8010E94AD0245
:10218000F801908190539A3010F0813031F4CF5F94
:10219000045F1F4FC83089F7C0E08D2F8150990B25
:1021A000BC01D6012C2F30E09CE0C99FF001112426
:1021B000EC56FC4F80E090E04D91419301968617DC
:1021C0009707D4F38CE0829FF001839FF00D1124D8
:1021D000EC56FC4FE286F386DF91CF911F910F9171
:1021E000FF90EF90DF90CF9008950E9443018FE41D
:1021F00093EC0197F1F700C000000895CF92DF92B1
:10220000EF92FF920F931F93CF93DF930F92CDB76F
:10221000DEB78C017C01E60EF11C0E151F0551F492
:102220000F90DF91CF911F910F91FF90EF90DF9072
:10223000CF900895F80141918F01E091B204F0919F
:10224000B304018CF28DE02D6CE070E080E090E052
:102250000995E091B204F091B304018CF28DE02D68
:1022600041E06AE070E080E090E009951982C12CBD
:1022700084E0D82EE091B204F091B3040788F08D89
:10228000E02DAE014F5F5F4F6AE070E080E090E0CC
:1022900009958981811509F287E893E10197F1F7A2
:1022A00000C0000091E0C91AD10821F7B6CF2F92E3
:1022B0003F924F925F926F927F928F929F92AF92D6
:1022C000BF92CF92DF92EF92FF920F931F93CF9323
:1022D000DF9300D000D00F92CDB7DEB749015A018D
:1022E0002DB73EB73D832C836B017C0100E010E0ED
:1022F000312C212C19821B82C701B6010E9499043E
:10230000462F572FBC01432C522C69807B80242CF4
:1023100023182416150616061706D8F0C701B601AD
:102320000E94D6046B017C01C114D104E104F104C4
:1023300009F44EC00F5F1F4F011580E8180721F404
:10234000C12CD12C760144C0342C252C69827B828F
:10235000D3CF481459046A047B0409F05AC08DB7DE
:102360009EB79A838983C701B6010E945C044B0122
:102370005C01C701B6010E947B053B017C012DB7C2
:102380003EB7281939090FB6F8943EBF0FBE2DBFCE
:102390008DB79EB701966C0195018401AC01B30124
:1023A000C7010E94AF06B301C7010E94D60594E0A1
:1023B000299EF0011124EC0DFD1DC080D180E2802A
:1023C000F38029813A810FB6F8943EBF0FBE2DBF2E
:1023D000C701B6012C813D810FB6F8943EBF0FBEF8
:1023E0002DBF0F900F900F900F900F90DF91CF9116
:1023F0001F910F91FF90EF90DF90CF90BF90AF9023
:102400009F908F907F906F905F904F903F902F9014
:1024100008953FEF431A530A630A730A78CF2F9245
:102420003F924F925F926F927F928F929F92AF9264
:10243000BF92CF92DF92EF92FF920F931F93CF93B1
:10244000DF93CDB7DEB7E9970FB6F894DEBF0FBEC6
:10245000CDBF8DB79EB79DAB8CAB0E94D10F8111C4
:1024600030C081E1E8EBF2E0DE01119601900D92BF
:102470008A95E1F761E1CE0101960E94C2090E94AE
:10248000D00A8CA99DA90FB6F8949EBF0FBE8DBF30
:10249000E9960FB6F894DEBF0FBECDBFDF91CF91A6
:1024A0001F910F91FF90EF90DF90CF90BF90AF9072
:1024B0009F908F907F906F905F904F903F902F9064
:1024C0000895C090A406D090A506E090A606F090CE
:1024D000A706C114D104E104F10499F2AFEFBFEFF4
:1024E000B9ABA8ABCE01809699A788A79E01245EC0
:1024F0003F4F4F972EAB3FAB8EA79FA7839688AFDA
:1025000099AFADB7BEB7BBABAAABC701B6010E94CE
:102510005C044B015C01C701B6010E9499046AA7E3
:102520007BA78CA79DA7C701B6010E947B052B0145
:102530003C018DB79EB7881999090FB6F8949EBFD4
:102540000FBE8DBF4DB75EB74F5F5F4F95018401E2
:10255000B201C3010E94AF06B201C3010E94D605B9
:10256000712C272D30E040E050E08AA59BA5ACA55A
:10257000BDA5781619061A061B0618F1712C272D11
:1025800030E040E050E08AA59BA5ACA5BDA578163B
:1025900019061A061B0608F454C0C701B6010E94AA
:1025A000D6046B017C01C114D104E104F10409F0EB
:1025B000B6C0AAA9BBA90FB6F894BEBF0FBEADBFE7
:1025C00060CFC701B6010E9457114B015C01AE01FB
:1025D000405E5F4F0E94A60F8BA1843681F54EA905
:1025E0005FA9B401C5010E94A60F8C8D0E940C0A40
:1025F0008D8D0E940C0A8E8D0E940C0A81E00E9433
:10260000850B4EA55FA5B401C5010E9450056BE086
:102610008EA59FA50E94C20982E00E94850B86E0DC
:10262000E9ECF2E0DE01529601900D928A95E1F715
:1026300066E0CE0142960E94C2090E94D00A7394BD
:1026400090CFC701B6010E9457114B015C01811464
:102650009104A104B10409F460C048AD59ADC501AD
:10266000B4010E94A60F8FA1843609F456C0AE01B2
:10267000405E5F4FC501B4010E94A60F64E0CE0129
:1026800080960E94C20981E00E94850BAE014E5ED9
:102690005F4FC501B4010E9450056BE0CE01429628
:1026A0000E94C20981E00E94850B140125019BE074
:1026B000290E311C411C511C5E01ACE1AA0EB11C5B
:1026C000A501C201B1010E940704BFEF2B1A3B0A0A
:1026D0004B0A5B0A8FEFA81AB80AA8A5B9A5AA15D4
:1026E000BB0571F76C8D7D8D8E8D9F8D4EA55FA581
:1026F0000E94C80211E0180F183008F017E087E0B8
:10270000811B873009F486E00E94850B612F8EA51E
:102710009FA50E94C2090E94D00A739430CF8AA953
:102720009BA90FB6F8949EBF0FBE8DBFA8A9B9A9EB
:102730001197B9ABA8ABAB2B09F0E3CEA2CE2F9289
:102740003F924F925F926F927F928F929F92AF9241
:10275000BF92CF92DF92EF92FF920F931F93CF938E
:10276000DF93CDB7DEB764970FB6F894DEBF0FBE28
:10277000CDBF8B8B9C8B162F6B3008F01AE0C0906E
:10278000A406D090A506E090A606F090A706A12C7E
:10279000B12C9E01255F3F4FCE010196298B3A8BCC
:1027A0008F87988BC701B6010E9499042B013C01C9
:1027B000212C222D30E040E050E0C701B601241466
:1027C000150416041704A0F00E94D6046B017C01C6
:1027D000C114D104E104F10471F18FEFA81AB80A11
:1027E000A11480E8B806F1F6C12CD12C760123C0E3
:1027F0000E945711362E872E982E092F49895A8903
:102800000E94A60F8E85843689F54F855889632DE1
:10281000782D892D902F0E9450052AE04F855889E8
:10282000612F8B899C890E944E038130F9F4C32C5F
:10283000D82CE92CF02EC701B60164960FB6F89497
:10284000DEBF0FBECDBFDF91CF911F910F91FF90E3
:10285000EF90DF90CF90BF90AF909F908F907F9040
:102860006F905F904F903F902F9008952394A1CF49
:102870004F925F926F927F92AF92BF92CF92DF9210
:10288000EF92FF920F931F93CF93DF9300D000D06E
:10289000CDB7DEB761500E949F136B017C0180E0D1
:1028A000C114D104E104F10459F12601370183E197
:1028B000480E511C611C711C8E010F5F1F4F5E0181
:1028C00085E0A80EB11CA801C301B2010E94070453
:1028D0008FEF481A580A680A780A0F5F1F4F0A15C7
:1028E0001B0589F78091A8068F5F8093A806C09288
:1028F000A406D092A506E092A606F092A70681E073
:102900000F900F900F900F90DF91CF911F910F912B
:10291000FF90EF90DF90CF90BF90AF907F906F903F
:102920005F904F9008952F923F924F925F926F92D7
:102930007F928F929F92AF92BF92CF92DF92EF924F
:10294000FF920F931F93CF93DF93CDB7DEB76497BA
:102950000FB6F894DEBF0FBECDBF8B8B9C8B162FAE
:102960006B3008F01AE0C090A406D090A506E09065
:10297000A606F090A706A12CB12C9E01255F3F4F23
:10298000CE010196298B3A8B8F87988BC701B601B0
:102990000E9499042B013C01212C222D30E040E0C3
:1029A00050E0C701B6012414150416041704A0F062
:1029B0000E94D6046B017C01C114D104E104F1042E
:1029C00071F18FEFA81AB80AA11480E8B806F1F6E1
:1029D000C12CD12C760123C00E945711362E872E90
:1029E000982E092F49895A890E94A60F8E85843610
:1029F00089F14F855889632D782D892D902F0E945C
:102A000050052AE04F855889612F8B899C890E9447
:102A10004E038130F9F4C32CD82CE92CF02EC701D9
:102A2000B60164960FB6F894DEBF0FBECDBFDF913E
:102A3000CF911F910F91FF90EF90DF90CF90BF90BB
:102A4000AF909F908F907F906F905F904F903F904E
:102A50002F9008952394A1CF2F923F924F925F928F
:102A60006F927F928F929F92AF92BF92CF92DF929E
:102A7000EF92FF920F931F93CF93DF93CDB7DEB703
:102A8000A5970FB6F894DEBF0FBECDBF8CA39DA354
:102A900069A3298F3A8F4B8F5C8F4DB65EB65BA2D0
:102AA0004AA28E010F5F1F4F4CE0C42ED12CE12CA7
:102AB000F12CA801C701B6010E9407042FEFC21A2A
:102AC000D20AE20AF20A0F5F1F4F30E1C316D104A7
:102AD000E104F10471F769817A818B819C81C09056
:102AE0006101D0906201E0906301F0906401A70160
:102AF00096010E94FF312D8F3E8F4F8F58A3C70143
:102B0000B6016250710981099109498C5A8C6B8C0C
:102B10007C8C640D751D861D971DA70196012150A3
:102B20003109410951090E94FF312B8B3C8B4D8BA0
:102B30005E8B812C912C5401C12CD12C76014D8CB3
:102B40005E8C6F8C78A0481459046A047B0409F4E5
:102B500013C1609161017091620180916301909154
:102B60006401A50194010E94E33100914D0610918A
:102B70004E0620914F06309150062B013C01400E2D
:102B8000511E621E731E4B865C866D867E8680910A
:102B9000E1019091E201A091E301B091E40184157B
:102BA0009505A605B70540F4A301920167E070E022
:102BB00080E090E50E94750EAE01495F5F4F6B8526
:102BC0007C858D859E850E9407048F818F3309F057
:102BD0001AC18F86988AA98ABA8A412C512C32014F
:102BE0008E010F5F1F4F60916101709162018091B2
:102BF0006301909164012F85388949895A890E941F
:102C0000E33120914D0630914E0640914F06509190
:102C10005006620F731F841F951F2091E1013091B0
:102C2000E2014091E3015091E4012617370748077C
:102C3000590718F49B01AC01B9CFA8010E94070401
:102C400089810F8B188F8F3309F0BBC02FEF421A89
:102C5000520A620A720A8B899C89AD89BE898415E1
:102C60009505A605B70509F4B0C02F8538894989AF
:102C70005A892F5F3F4F4F4F5F4F2F87388B498BBC
:102C80005A8B8D8D9E8DAF8DB8A182179307A407A7
:102C9000B50709F0A8CF2B893C894D895E89241599
:102CA00035054605570509F0AEC060916101709188
:102CB000620180916301909164010E94E3316C0D87
:102CC0007D1D8E1D9F1D41E40E94E90345E5C7015E
:102CD000B6010E94E903412C512C32018B889C885B
:102CE000AD88BE8831E0831A9108A108B108481464
:102CF00059046A047B0408F46DC0460157015FEF74
:102D0000851A950AA50AB50A1AE040E2C501B40180
:102D10000E94E90311508FEF881A980AA80AB80A8E
:102D20001111F3CF498C5A8C6B8C7C8C49825A825E
:102D30006B827C820F89188D460157012BE0820E31
:102D4000911CA11CB11C1E0135E0230E311CD801C1
:102D50004D918D01C501B4010E94E903BFEF8B1AAB
:102D60009B0AAB0ABB0A0215130589F7C114D104EB
:102D7000E104F10409F04DC0C12CD12C7601C7014A
:102D8000B601AAA1BBA10FB6F894BEBF0FBEADBFDE
:102D9000A5960FB6F894DEBF0FBECDBFDF91CF91E1
:102DA0001F910F91FF90EF90DF90CF90BF90AF9069
:102DB0009F908F907F906F905F904F903F902F905B
:102DC0000895412C512C320166CFCB84DC84ED84F4
:102DD000FE8461CF4FEF441A540A640A740A60916A
:102DE0006101709162018091630190916401A3017E
:102DF00092010E94E3316C0D7D1D8E1D9F1D44E4E8
:102E00000E94E90374CFEFEF8E1A9E0AAE0ABE0A43
:102E100096CE8090A4069090A506A090A606B090AD
:102E2000A70681149104A104B10409F4EBC06DB6A6
:102E30007EB67E8E6D8EC501B4010E945C04C50114
:102E4000B4010E949904C501B4010E94D604462F22
:102E5000572FBC0100E010E04115510561057105D7
:102E600009F06EC1C501B4010E945C046B877C87C8
:102E70008D879E87C501B4010E9499042B013C01F6
:102E80008091610190916201A0916301B091640110
:102E900032E0B695A795979587953A95D1F748165C
:102EA00059066A067B06D8F086E0EFECF2E0AF89BF
:102EB000B88D01900D928A95E1F766E08F89988D23
:102EC0000E94B9183B018C019B01AC01C501B40102
:102ED0000E94130543015801412C512C3201898273
:102EE0009A82AB82BC820F89188DD701C6014896A1
:102EF000A11DB11D8F87988BA98BBA8BD8014D91DD
:102F00008D016F85788989899A890E94E9032F85C7
:102F1000388949895A892F5F3F4F4F4F5F4F2F871D
:102F2000388B498B5A8B2016310641F7C501B40105
:102F30000E947B056F877B8B8F8B988F4DB75EB719
:102F40008B859C85481B590B0FB6F8945EBF0FBE4E
:102F50004DBFADB7BEB711961D010B851C852D85E4
:102F60003E85AD018F89988D0E94AF06D301C201C5
:102F700022E0880F991FAA1FBB1F2A95D1F7820D47
:102F8000931DFC01C082D182E282F382D301C2018F
:102F90000196A11DB11D89839A83AB83BC838E01E9
:102FA0000F5F1F4FF3E18F0E911CA11CB11C3E015E
:102FB00025E0620E711CD8014D918D01C501B4014F
:102FC0000E94E903BFEF8B1A9B0AAB0ABB0A0615E6
:102FD000170589F70B851C852D853E85A1016F8519
:102FE0007B898F89988D0E94FC056F857B898F89ED
:102FF000988D0E94D605ED8DFE8D0FB6F894FEBF1C
:103000000FBEEDBF09A10B3008F00AE0ACA0BDA0D7
:1030100026013701812C912C0150110BEFEF4E1A34
:103020005E0A6E0A7E0A801691060CF497C0498CDF
:103030005A8C6B8C7C8C49825A826B827C828E018A
:103040000F5F1F4F260137012BE0420E511C611C00
:10305000711C5E0135E0A30EB11CD8014D918D01AC
:10306000C301B2010E94E903BFEF4B1A5B0A6B0A6E
:103070007B0A0A151B0589F78091ED019091EE01FD
:10308000A091EF01B091F0018F839887A987BA874B
:10309000AE01495F5F4FC701B6010E94871046012C
:1030A0005701E3E18E0E911CA11CB11C14E040E01D
:1030B000C501B4010E94E9031150FFEF8F1A9F0A66
:1030C000AF0ABF0A1111F3CF460157012CE1820E5E
:1030D000911CA11CB11C14E040E0C501B4010E9488
:1030E000E90311503FEF831A930AA30AB30A11119F
:1030F000F3CF4601570148E1840E911CA11CB11C7D
:1031000014E040E0C501B4010E94E90311505FEFF3
:10311000851A950AA50AB50A1111F3CF40E0C70137
:10312000B601695E7F4F8F4F9F4F0E94E90327CE04
:103130000F5F1F4F411551056105710509F492CECE
:103140004A015B01CB01BA010E94D604462F572FDA
:10315000BC010F3F2FE7120759F784CED5014D91DF
:103160005D01C301B2010E94E903BFEF8B1A9B0A04
:1031700055CF2F923F924F925F926F927F928F9294
:103180009F92AF92BF92CF92DF92EF92FF920F93F6
:103190001F93CF93DF9300D000D000D0CDB7DEB720
:1031A0002DB73EB73E832D836B3008F06AE020E4F4
:1031B00030E040E050E00E942C156B017C01C1140E
:1031C000D104E104F10409F445C08091F10190912A
:1031D000F201A091F301B091F40189839A83AB834A
:1031E000BC83AE014F5F5F4FC701B6010E948710DD
:1031F000C701B6010E947B051B014C01C701B60146
:103200000E945C042B013C018DB79EB7841995097F
:103210000FB6F8949EBF0FBE8DBF2DB73EB72F5F80
:103220003F4F590193018201A501B101C4010E94E0
:10323000AF06A20160E070E0C5010E94AF339301C8
:103240008201A501B101C4010E94FC05B101C401C4
:103250000E94D605C701B6012D813E810FB6F894B4
:103260003EBF0FBE2DBF0F900F900F900F900F908D
:103270000F90DF91CF911F910F91FF90EF90DF9012
:10328000CF90BF90AF909F908F907F906F905F9006
:103290004F903F902F9008951F93CF93DF93D82F97
:1032A000C92F162F0E949F1321E0672B682B692BD3
:1032B00059F4612F8D2F9C2F0E94B91821E0672BA4
:1032C000682B692B09F420E0822FDF91CF911F91A9
:1032D00008951F93CF93DF93D82FC92F162F0E94E5
:1032E0009314611571058105910571F420E230E0B8
:1032F00040E050E0612F8D2F9C2F0E942C1561150E
:1033000071058105910529F0DF91CF911F910C94F2
:103310007B056FEF7FEFCB01DF91CF911F91089578
:103320002F923F924F925F926F927F928F929F92D5
:10333000AF92BF92CF92DF92EF92FF920F931F93C3
:10334000CF93DF93CDB7DEB729970FB6F894DEBFE2
:103350000FBECDBF4B015C0129013A01EE82FF8215
:10336000088719878DB79EB79D838C8300E010E096
:10337000312C212C19821B82C501B4010E949904B1
:10338000462F572FBC01C32CD22CE980FB802C2C5C
:1033900023182416150616061706C0F0C501B40139
:1033A0000E94D6044B015C0181149104A104B10474
:1033B00009F454C00F5F1F4F011580E8180709F486
:1033C0004DC03C2C2D2CE982FB82D6CFC414D504F1
:1033D000E604F70409F062C08DB79EB79A8389832B
:1033E000C501B4010E945C042B013C01C501B4017C
:1033F0000E947B055B016C018DB79EB7841995090E
:103400000FB6F8949EBF0FBE8DBF01967C0193014D
:103410008201AC01B501C6010E94AF0694E0299E6D
:10342000F0011124EE0DFF1D8E8180839F81918319
:10343000888582839985938393018201A701B501D1
:10344000C6010E94FC05B501C6010E94D60589810E
:103450009A810FB6F8949EBF0FBE8DBF8C819D815F
:103460000FB6F8949EBF0FBE8DBF29960FB6F89485
:10347000DEBF0FBECDBFDF91CF911F910F91FF90A7
:10348000EF90DF90CF90BF90AF909F908F907F9004
:103490006F905F904F903F902F9008959FEFC91AC3
:1034A000D90AE90AF90A73CF2F923F924F925F929D
:1034B0006F927F928F929F92AF92BF92CF92DF9244
:1034C000EF92FF920F931F93CF93DF93CDB7DEB7A9
:1034D0002C970FB6F894DEBF0FBECDBF4B015C0139
:1034E0002D833E834F835887212C312CC501B40195
:1034F0000E9499046B017C0110E0412E512C612C3B
:10350000712C1C151D041E041F04A0F0C501B4017C
:103510000E94D6044B015C0181149104A104B10402
:1035200009F4A9C0EFEF2E1A3E0A2114F0E83F0675
:10353000E9F6A1C0A3019201C501B4010E9457118F
:103540002D813E814F815885621773078407950747
:1035500011F01F5FD2CF6D817E818F8198850E948F
:10356000190FD701C6010197A109B10989879A8767
:10357000AB87BC87CA94CD28CE28CF2809F094C049
:10358000C501B4010E94D6042B013C017501640100
:10359000A8E1CA0ED11CE11CF11C8E010F5F1F4F68
:1035A0001E01B5E02B0E311CA801C701B6010E9417
:1035B0000704EFEFCE1ADE0AEE0AFE0A0F5F1F4F76
:1035C0000215130589F729813A814B815C812D838E
:1035D0003E834F835887232B242B252B49F120E052
:1035E00030E0A9014114510461047104D9F08E0145
:1035F0000F5F1F4F7301620138E1C30ED11CE11C44
:10360000F11CD8014D918D01C701B6010E94E9035B
:10361000BFEFCB1ADB0AEB0AFB0A2016310689F74B
:10362000A30192016D817E818F8198850E9413058F
:1036300029853A854B855C8529833A834B835C8356
:103640008E010F5F1F4F33E1830E911CA11CB11C33
:103650007E0145E0E40EF11CD8014D918D01C501BC
:10366000B4010E94E903BFEF8B1A9B0AAB0ABB0AA5
:103670000E151F0589F72C960FB6F894DEBF0FBE06
:10368000CDBFDF91CF911F910F91FF90EF90DF9011
:10369000CF90BF90AF909F908F907F906F905F90F2
:1036A0004F903F902F90089529853A854B855C85F2
:1036B000C501B4010E9457117B018C01A301920145
:1036C000C501B4010E949019E12CF12C87012985D4
:1036D0003A854B855C85C501B4010E949019A8CF3D
:1036E000CF92DF92EF92FF926B3008F06AE00E9477
:1036F0009F136B017C01C114D104E104F104A9F012
:103700006091A4067091A5068091A6069091A706E7
:10371000611571058105910521F0A70196010E94AF
:10372000541AC701B6010E94190FC701B601FF90D4
:10373000EF90DF90CF9008951F93CF93DF93D82F12
:10374000C92F162F0E949F13672B682B692B51F0EE
:10375000612F8D2F9C2F0E94701B862FDF91CF91A0
:103760001F91089580E0FACF0F931F93CF93DF93BB
:10377000EC018B0184E090E00E947932FC01892BFE
:1037800021F00283138311821082A881B9811097DE
:1037900039F4F983E883DF91CF911F910F91089558
:1037A000ED010D90BC91A02DF2CFBC018CEA94E00C
:1037B0000C94B41B8F929F92AF92BF92CF92DF92E4
:1037C000EF92FF920F931F93CF93DF9300D0CDB76B
:1037D000DEB72DB73EB73A8329830E9493146B015D
:1037E0007C018FEFC114D104E104F10409F4A4C0F9
:1037F000C701B6010E947B054B015C01C701B60100
:103800000E945C048B019C018DB79EB7801B910BBD
:103810000FB6F8949EBF0FBE8DBFEDB7FEB73196C1
:103820007F01AF01B401C5010E94AF06B401C5011B
:103830000E94D605F70180818B3461F48181843444
:1038400049F48485E091AC04F091AD04812C912C75
:10385000843241F08EEF70C02FEF821A920A0190ED
:10386000F081E02D3097C1F7092C000CAA08BB08A5
:1038700010E0C70102966C01181519041A041B0404
:1038800008F44BC08BE190E00E9479328C010E94D9
:10389000D51B8AE0F601D80101900D928A95E1F7D7
:1038A000F801168A1486F7018585F8018287F701E9
:1038B000868590E0F801928B818BF701878590E0F7
:1038C000F801948B838BF70140892AE132E088E587
:1038D00092E0413021F02BE031E08CE691E0F801FC
:1038E000458B308F278B928F818FF7013389248905
:1038F00095898689F801358726879787808BE0919F
:10390000AE04F091AF0480E090E0309769F5F82EB6
:10391000E12CEF102EC080E00FC0812F0E94ED0738
:10392000FC01D6010A962D91308132131BC03196CD
:103930008E179F07C1F78DEF29813A810FB6F89452
:103940003EBF0FBE2DBF0F900F90DF91CF911F9103
:103950000F91FF90EF90DF90CF90BF90AF909F902E
:103960008F9008951F5F88CF01960190F081E02D20
:10397000CCCF8E2D0E94DD075C012AE0A6016AE013
:103980000E944E03811102C0E394C3CF81E0F8018D
:10399000868BF5018485F8018487F50185859685F8
:1039A000A785B089F80185879687A787B08B84E0C3
:1039B000C3CF2F923F924F925F926F927F928F92DE
:1039C0009F92AF92BF92CF92DF92EF92FF920F93AE
:1039D0001F93CF93DF93CDB7DEB76F970FB6F894F1
:1039E000DEBF0FBECDBF6B017C010DB71EB71F8FB1
:1039F0000E8FC114D104E104F10409F580E00E8DAD
:103A00001F8D0FB6F8941EBF0FBE0DBF6F960FB679
:103A1000F894DEBF0FBECDBFDF91CF911F910F9104
:103A2000FF90EF90DF90CF90BF90AF909F908F90DE
:103A30007F906F905F904F903F902F900895AE01D0
:103A4000425F5F4FC701B6010E94A60F8E8588377F
:103A5000A9F6C701B6010E947B054B015C01160166
:103A600027011BE0210E311C411C511C7E0122E16B
:103A7000E20EF11C3E0136E1630E711CA701C2018A
:103A8000B1010E9407048FEF281A380A480A580A21
:103A90009FEFE91AF90AE614F70481F74A885B8870
:103AA0006C887D88ADB7BEB7A419B5090FB6F89478
:103AB000BEBF0FBEADBFEDB7FEB731967F0193011C
:103AC0008201AF01B401C5010E94AF06B401C50176
:103AD0000E94D605809167060E949E03609163064E
:103AE0007091640680916506909166066093A406C5
:103AF0007093A5068093A6069093A7060E94E90EF0
:103B000080915F068093A806A201B70189E495E041
:103B10000E94A6334092D9045092DA046092DB04EA
:103B20007092DC0482E090E09A8789879C878B877B
:103B300010925B0610925C0610925D0610925E0673
:103B400010925706109258061092590610925A0673
:103B50001092530610925406109255061092560673
:103B6000109252061092510681E08093E5010E9466
:103B7000220C80914D0690914E06A0914F06B09177
:103B800050068093490690934A06A0934B06B09343
:103B90004C068091E1019091E201A091E301B09186
:103BA000E4018093DD019093DE01A093DF01B093E7
:103BB000E001C0905B06D0905C06E0905D06F0905E
:103BC0005E06C114F1E0DF06E104F104B8F080E024
:103BD0000E943A0C1092490610924A0610924B0627
:103BE00010924C068FEF9FEFDC018093DD019093E4
:103BF000DE01A093DF01B093E00194C2F601E75B20
:103C0000FA4F3080970186010F5F1F4F2F4F3F4FB4
:103C10000A8F1B8F2C8F3D8FF801E75BFA4F808155
:103C20004601570112E0810E911CA11CB11CF40148
:103C3000E75BFA4F9081B701A6014D5F5F4F6F4F71
:103C40007F4FFA01E75BFA4F2080970186010C5FF6
:103C50001F4F2F4F3F4F0E8B1F8B288F398FF8012F
:103C6000E75BFA4FA0812601370115E0410E511C98
:103C7000611C711CF201E75BFA4FB0810A8D1B8D4C
:103C80002C8D3D8D00935B0610935C0620935D06A2
:103C900030935E061AE8311608F059C024E7321650
:103CA000D8F532E2331609F4C5C1A3E23A16E8F5B5
:103CB000B0E23B1609F4A6C1E1E23E1609F4AEC13A
:103CC000311409F433C1FFE03F1273CF4091530622
:103CD0005091540660915506709156064150510915
:103CE0006109710940935306509354066093550639
:103CF00070935606E82FF0E0EF5BFA4F43525B4FAC
:103D0000DA018C9102C1E0E1E30DEF3098F5F0E0CB
:103D1000E057FB4C0C942132ECE8E30DE63150F512
:103D2000F0E0E156FB4C0C94213208E3301609F424
:103D30008DC119E3311609F49AC123E2321239CF49
:103D4000E82FF0E0EF5BFA4F80818095FAC03FEFFB
:103D5000331609F42ECFB0EF3B16A8F6EAE93E166B
:103D600009F4B4C1FBEC3F1609F4B9C100E93016FF
:103D700009F41FCF24E3230D223008F01ACF8092DC
:103D80005B0690925C06A0925D06B0925E0684315E
:103D900009F4C7C208F0C0C1803109F4CDC1833134
:103DA00009F007CF8091B904803209F43DC36091D6
:103DB000B5047091B6048091B7049091B804611570
:103DC00071058105910509F42FC3209142052C331B
:103DD00009F004C2F0904605E090450589EB94E0B7
:103DE0000E949314672B682B692B09F4E8C182E0C9
:103DF00080934305DECE892E922C5D0140914906C9
:103E000050914A0660914B0670914C064090DD013E
:103E10005090DE016090DF017090E001480D591D67
:103E20006A1D7B1D481459046A047B0440F49A01FE
:103E3000AB0164E070E080E090E80E94750E282FEE
:103E400030E02F5B3A4FCE0109960E941A0216E02D
:103E5000C10ED11CE11CF11CC0925B06D0925C0625
:103E6000E0925D06F0925E06A4CE892E922C5D0152
:103E70004091490650914A0660914B0670914C065C
:103E80004090DD015090DE016090DF017090E00114
:103E9000480D591D6A1D7B1D481459046A047B0492
:103EA00030F2E82FF0E0EF5BFA4F2081CE01099667
:103EB0000E94580226E0C20ED11CE11CF11CCCCF9E
:103EC000E92FF0E0EF5BFA4F9081E82FF0E0EF5B35
:103ED000FA4F908340935B0650935C0660935D06B7
:103EE00070935E0666CEE82FF0E0EF5BFA4F9083AA
:103EF000218236E0C30ED11CE11CF11CADCFE82FAE
:103F0000F0E0EF5BFA4F80818F5F808380925B06E9
:103F100090925C06A0925D06B0925E064ACEE82FB3
:103F2000F0E0EF5BFA4F80818150EFCFE82FF0E0B7
:103F3000EF5BFA4FA92FB0E0AF5BBA4F80819C9145
:103F4000890F8083C7CFE82FF0E0EF5BFA4FA92FEE
:103F5000B0E0AF5BBA4F80819C91891BF2CFE82F14
:103F6000F0E09F012F5B3A4F892F90E08F5B9A4FD3
:103F7000A22DB0E0AF5BBA4FFC0180819C91899F7C
:103F8000802D1124D9018C930E891F89288D398D9C
:103F900000935B0610935C0620935D0630935E06EB
:103FA00008CEE82FF0E09F012F5B3A4F892F90E079
:103FB0008F5B9A4FA22DB0E0AF5BBA4FFC018081BE
:103FC0006C910E94F331DECF40915306509154061C
:103FD0006091550670915606DA01A352BB4FE82F47
:103FE000F0E0EF5BFA4F80818C934F5F5F4F6F4F34
:103FF0007F4F409353065093540660935506709339
:10400000560684CFE82FF0E0EF5BFA4FA92FB0E01F
:10401000AF5BBA4F80819C91892393CFE82FF0E06A
:10402000EF5BFA4FA92FB0E0AF5BBA4F80819C9154
:10403000892B87CFE82FF0E0EF5BFA4FA92FB0E094
:10404000AF5BBA4F80819C9189277BCFE82FF0E04E
:10405000EF5BFA4F20819217B1F081E0921708F0E0
:1040600080E090E0909352068093510633CFE82F82
:10407000F0E0EF5BFA4F2081E92FF0E0EF5BFA4FC1
:1040800090812917E9CF91E080E0ECCF2091520692
:10409000213099F480935B0690935C0620925D0634
:1040A000A0935E0686CD209152062115F2CF209175
:1040B0005106EECF20915106F8CF40925B06509208
:1040C0005C0660925D0670925E0673CD4092570664
:1040D000509258066092590670925A06DBCF809132
:1040E000570690915806A0915906B0915A068093B0
:1040F0005B0690935C06A0935D06B0935E061092FB
:104100005706109258061092590610925A0651CD31
:10411000F8944FCD78944DCD873409F487C180321F
:1041200009F047CD8091E501813011F40E94D00A59
:104130000E94D00B81E063CC80914205893099F5D3
:10414000F12CE12CD0904805C0904705812C912C92
:1041500054018091D9049091DA04A091DB04B091CC
:10416000DC0488169906AA06BB0620F081E080933D
:10417000E5011FCDD701C601880D991DAA1DBB1DE4
:10418000875B9A4FFC018081811581F38A3041F46D
:104190000E94D00AFFEF8F1A9F0AAF0ABF0AD9CF39
:1041A0000E940C0AF7CF833009F03EC10E942E0E08
:1041B00060E080E00E94C7081092E501FACC970108
:1041C00040E050E06091B50489EB94E00E942C152A
:1041D000672B682B692BD1F583E00ACE293381F454
:1041E00089EB94E00E949F13672B682B692B09F0E1
:1041F000FECD6091B50489EB94E00E94B918E8CF38
:10420000213439F56B3008F06AE089EB94E00E94C4
:1042100093146B017C01C114D104E104F10409F48D
:10422000E6CD6091A4067091A5068091A6069091B6
:10423000A706611571058105910521F0A701960179
:104240000E94541AC701B6010E94190F109243052B
:10425000B3CF2A3351F489EB94E00E94701B672B93
:10426000682B692B09F4C3CDF1CF2C3409F0DCC0E5
:1042700089EB94E00E9493146B017C01C114D1047A
:10428000E104F10409F4B3CD0DB71EB71F8B0E8BFB
:10429000C701B6010E947B052B014C01C701B60185
:1042A0000E945C046B017C012DB73EB7261B370BC7
:1042B0000FB6F8943EBF0FBE2DBF8DB79EB70196C7
:1042C0005C0197018601AC01B201C4010E94AF06F6
:1042D000612C712C6C147D041E041F0470F0B2015B
:1042E000C4010E94D60510924305EE89FF890FB6DE
:1042F000F894FEBF0FBEEDBF5CCC80917A0685318D
:1043000010F00E94D00AD5018D915D018A3031F400
:104310000E94D00ABFEF6B1A7B0ADCCF0E940C0A06
:10432000F9CF809142058A3009F04AC088E0E5ED76
:10433000F2E0DE01119601900D928A95E1F767E0B7
:10434000CE0101960E94F9077C019093B3048093FB
:10435000B204892B09F468C08AE090E0D701529634
:104360009C938E93519754969C938E93539785E686
:1043700098E058969C938E93579780E898E05A96C9
:104380009C938E9359974CE06EE070E080E090E053
:104390000E948008D7015996ED91FC9141E06DE0B3
:1043A00070E080E090E00995EFE1FEE43197F1F7ED
:1043B00000C0000081E08093B40410924305F9CB63
:1043C0008C3091F58091470590914805A0E0B0E0D0
:1043D000C090D904D090DA04E090DB04F090DC04C3
:1043E0008C159D05AE05BF05F8F4609145054C019F
:1043F0005D01860E911CA11CB11C8C149D04AE04A1
:10440000BF0490F420914105211521F0213039F0AD
:1044100080E0EECC875B9A4F0E94FE10F9CF60914E
:10442000B50489EB94E0F8CF81E0E2CC80914205BD
:104430008A3009F0BECB6091B50489EB94E00E940C
:10444000DA1B8F3F89F38E3F09F4D1CC8D3F09F4FD
:10445000C3CE87FDAECBB1CFEF92FF920F931F93E8
:10446000CF93DF93C0918403D09185038E0120E028
:1044700030E00115110571F5032E001C00086217CC
:1044800073078005900508F064C0CE010E94CD0737
:10449000FC01E280F380209771F08A819B81E8160D
:1044A000F90611F58881998190938503809384039F
:1044B000CE010E9412330E94220CC0910001C03232
:1044C000F1F020E030E0A90164E070E080E090E8E5
:1044D0000E94750E2F5F3F4FF80100811181C9CFF7
:1044E0008E01009741F3EC012A813B8188819981FB
:1044F000E216F306A9F7F80191838083D9CF0E94D1
:10450000D8038093000188E70E949E03F701278962
:10451000308D418D528D60918B0370918C03809111
:104520008D0390918E030E94541A80910001803275
:1045300041F20E949E03C093000180E00E943A0C69
:10454000C701DF91CF911F910F91FF90EF900C94D5
:104550001233DF91CF911F910F91FF90EF9008954B
:104560000F931F93CF93DF93B0918403A0918503A2
:10457000EB2FFA2F20E030E0309709F0D5C021155D
:10458000310509F4CCC0009183030111C8C041E09A
:104590004093830340917F03509180036091810396
:1045A000709182034F5F5F4F6F4F7F4F40937F0348
:1045B00050938003609381037093820340917F0343
:1045C000509180036091810370918203032E001C3F
:1045D0000008421753076005700540F010927F03F2
:1045E00010928003109281031092820360917F03E6
:1045F0007091800380918103909182038B2F9A2F79
:104600000E94CD07FC01C281D381D0937E03C09369
:104610007D0380914D0690914E06A0914F06B0917A
:10462000500610E00097A105B10539F01FEF811584
:104630009044A105B10509F411E08B858B3609F092
:1046400079C080E00E943A0C8F89988DA98DBA8D2F
:104650008F859889A989BA898093490690934A06DB
:10466000A0934B06B0934C068B899C89AD89BE897B
:104670008093DD019093DE01A093DF01B093E00110
:104680008D859C85981708F058C01D868E8580FD05
:1046900004C08E8581608E8701E01C8E1B8E78940D
:1046A00081E080937C03E0917D03F0917E03058C93
:1046B000F68DE02D802F099510927C03E0917D030B
:1046C000F0917E038285823091F460917F03709136
:1046D000800380918103909182030E942C2210928A
:1046E0007F03109280031092810310928203109234
:1046F000490610924A0610924B0610924C068FEF14
:104700009FEFDC018093DD019093DE01A093DF0138
:10471000B093E001812F0E943A0C10928303DF9145
:10472000CF911F910F9108952F5F3F4F0190F0811E
:10473000E02D22CF0E94220C87CF8D858F5F8D8741
:10474000BDCF209174033091750340917603509151
:104750007703609178037091790380917A03909147
:104760007B03A1E00E9432322093740330937503DF
:1047700040937603509377036093780370937903A3
:1047800080937A0390937B0380917C038115C1F120
:10479000E0917D03F0917E03838D948D0196948F3B
:1047A000838F838D948D8536910520F08685826078
:1047B00086870895838D948D893E934098F060910B
:1047C0007F037091800380918103909182030E9406
:1047D0002C2210927F03109280031092810310927A
:1047E00082030895838D948D893B9B4048F020E09F
:1047F00030E0A90162E070E080E090E10E94750E77
:104800000895EF92FF920F931F93CF93DF93CDB74D
:10481000DEB7CE51D4400FB6F894DEBF0FBECDBF89
:104820007C01E1E0F4E0EC0FFD1F329682E1DF0154
:104830001D928A95E9F70E94D803CF5FDB4F8883EA
:10484000C150D4408FE2CE5FDB4F8883C250D4404A
:104850008E010B5E1B4F4AE050E060E270E0C80141
:104860000E94AF336FE270E0C7010E94C533BC0104
:104870007801892BC1F56091A4067091A5068091FD
:10488000A6069091A706A8010E945005F701A1E095
:10489000B4E0AC0FBD1F129660E081918D936F5F05
:1048A000803219F06A30C9F760E081E0860FE1E0FC
:1048B000F4E0EC0FFD1FE80FF11D8EE380836D5FC8
:1048C000CE018F5F9B4F0E949F02C25EDB4F0FB6EF
:1048D000F894DEBF0FBECDBFDF91CF911F910F9136
:1048E000FF90EF9008956F5F7F4F4FEF53E0CE0141
:1048F00001960E94B633DE011196F8019E01255FF4
:104900003F4F8D91811511F28193A217B307C9F71B
:10491000BDCF2F923F924F925F926F927F928F9274
:104920009F92AF92BF92CF92DF92EF92FF920F933E
:104930001F93CF93DF93CDB7DEB7C352D1400FB6ED
:10494000F894DEBF0FBECDBF7C01162F8DB79EB78A
:10495000CE5DDE4F99838883C252D1406E0191E0D3
:10496000C90ED91E84E1EFEDF2E0D60101900D925F
:104970008A95E1F7F7010081C15EDE4F0883CF51D0
:10498000D140CE01815E9E4F0E94B602F701818127
:1049900091E00E3209F090E08E3209F0ADC0911531
:1049A00009F4AAC0F7019281903209F0A5C0809164
:1049B000A806823008F4F4C08E010D5F1F4F82E11B
:1049C000F80111928A95E9F70E94D80389838FE252
:1049D0008A83C12CD12C760145E151E04C0F5D1F3B
:1049E0004C0D5D1D8091A4069091A506A091A60690
:1049F000B091A706BC01CD01685E7F4F8F4F9F4FDE
:104A00006C0D7D1D8E1D9F1D0E940704FFEFCF1AA8
:104A1000DF0AEF0AFF0A84E0C816D104E104F104BA
:104A2000D9F6CB5EDE4FC880D980EA80FB80C551C5
:104A3000D140C114D104E104F104C9F18091A80668
:104A400081508093A806C092A406D092A506E09259
:104A5000A606F092A7064AE050E060E270E0CE01C0
:104A60008B5E9E4F0E94AF33AE014B5E5E4FC7011F
:104A7000B6010E945005FE01EB5EFE4FD80160E0DA
:104A800081918D936F5F803219F06A30C9F760E0D1
:104A900081E0860FE1E0F0E0EC0FFD1FE80FF11D73
:104AA0008EE380836D5FCE0101960E949F02CE5DF2
:104AB000DE4FE881F981C252D1400FB6F894FEBFB3
:104AC0000FBEEDBFCD5DDE4F0FB6F894DEBF0FBE5B
:104AD000CDBFDF91CF911F910F91FF90EF90DF90AD
:104AE000CF90BF90AF909F908F907F906F905F908E
:104AF0004F903F902F900895C15EDE4FB880CF5108
:104B0000D1409FEB9B0D9A3108F046C08A3371F477
:104B10008B2D0E949E03B9828EE38A8363E0CE01CF
:104B200001960E949F020E94010FC1CF9A31A0F509
:104B3000E12F1B3008F0EAE0EF5FEE0DFF2DF11DD5
:104B400010824FEF50E0B701CE0101960E94B633BC
:104B5000C150DE4F19821882CF5FD1406DED72E0F7
:104B6000CE0101960E944D32FC01892B29F464E1AB
:104B7000C6010E94C20952C0DF010D900020E9F772
:104B80006A2F6E1BCF010E94381481119FC06DEDFA
:104B900072E080E090E0E6CF0F3231F4803221F411
:104BA0000E94D8038983B8CF4090A4065090A506F0
:104BB0006090A6067090A7062090A806022D10E02F
:104BC000F8013197C05EDE4FF983E883C052D140CF
:104BD000000F111F000F111F8DB79EB7801B910B87
:104BE0000FB6F8949EBF0FBE8DBFEDB7FEB73196DE
:104BF0006F015F01312C4E01F5E08F0E911C3210D8
:104C000010C08FE20E940C0A0C0D1D1DE12CF12C2E
:104C10006E01FBE0CF0ED11CE21438F10E94D00AE5
:104C200046CFF50141925192619271925F01F8E194
:104C30004F0E511C611C711CCE0101967C01A70115
:104C4000C301B2010E9407049FEF491A590A690A79
:104C5000790AEFEFEE1AFE0AE814F90481F74980A9
:104C60005A806B807C803394CACF4AE050E060E287
:104C700070E0CE0101960E94AF33F80192918291CB
:104C8000729162918F01AE014F5F5F4F0E9450059C
:104C9000CE0101965C01F50181915F01803281F4C2
:104CA000C05EDE4F88819981C052D140E816F90676
:104CB0001CF48FE20E940C0A9FEFE91AF90AACCFAC
:104CC0000E940C0AAC14BD0431F7EACFC7010E9460
:104CD0000124EDCE1F920F920FB60F9211242F9345
:104CE0003F934F935F936F937F938F939F93AF9374
:104CF000BF93EF93FF93E0915F01F09160010995FD
:104D0000FF91EF91BF91AF919F918F917F916F91A3
:104D10005F914F913F912F910F900FBE0F901F9079
:104D200018951F920F920FB60F9211242F933F9355
:104D30004F935F936F937F938F939F93AF93BF93A3
:104D4000EF93FF93E0915D01F0915E010995FF9172
:104D5000EF91BF91AF919F918F917F916F915F91F3
:104D60004F913F912F910F900FBE0F901F9018956C
:104D70001F920F920FB60F9211242F933F934F93D0
:104D80005F936F937F938F939F93AF93BF93EF93B3
:104D9000FF93E0915B01F0915C010995FF91EF9128
:104DA000BF91AF919F918F917F916F915F914F9143
:104DB0003F912F910F900FBE0F901F9018951F924B
:104DC0000F920FB60F9211242F933F934F935F933F
:104DD0006F937F938F939F93AF93BF93EF93FF93C3
:104DE000E0915901F0915A010995FF91EF91BF911E
:104DF000AF919F918F917F916F915F914F913F9173
:104E00002F910F900FBE0F901F901895CDB7DEB762
:104E1000ED970FB6F894DEBF0FBECDBF11B88FEF80
:104E200082B981B984B985B981B982B987B988B99C
:104E30009FE09AB98BB92FEF38E04DE32150304015
:104E40004040E1F700C0000088E0E3EFF2E08E01AF
:104E50000F5F1F4FD80101900D928A95E1F788E00E
:104E6000F801A9E5B3E001900D928A95E1F789E593
:104E700093E00E94D51B80E090E0A4E0B0E0809336
:104E8000660390936703A0936803B093690380E17E
:104E90008093630388E090E090936B0380936A03B0
:104EA00090936D0380936C038DE091E09093710378
:104EB000809370038EE691E0909373038093720366
:104EC00010926F0380E580933E0383E580933F0358
:104ED00082E380934003109241038EE393E00E94AB
:104EE000D51B80E090E0A9E0B0E080934B03909365
:104EF0004C03A0934D03B0934E0381E0809348038D
:104F000082E090E09093500380934F03909352037C
:104F10008093510388E291E0909356038093550368
:104F200089E891E0909358038093570310925403BB
:104F300084E190E0909387038093860390938903A4
:104F400080938803D12C812C912C74E0A72EB12C56
:104F50000CA718ABE0E2CE2E83EF91E00197F1F7BA
:104F600000C000002CA538A9B501A40186E893E093
:104F70000E94DD0089818F3F09F441C086E190E005
:104F80000E9479328C01BC018EEA94E00E94B41B2D
:104F90008981D8011A968C9324013501B4E06B1AEB
:104FA000710878019801240D351DB301A2014F5FEE
:104FB0005F4F6B4F7F4F86E893E00E94DD00EFEF7D
:104FC0004E1A5E0A6E0A7E0AFAE04F12EACF980184
:104FD000265F3F4F80E0D7019D917D01903211F017
:104FE000811521F0F7013197C08281E0E216F306C6
:104FF00091F7F80185869686A786B08AD486FFEF5A
:10500000AF1ABF0AD39425E0D212A6CF8090AC0489
:105010009090AD042090AE043090AF04412C512C00
:105020003201F40180E090E0309709F090C1092E40
:10503000001C0008481659066004700408F47DC17D
:1050400081E090E090931A04809319048CEC97E02F
:1050500090930A048093090490930C0480930B04AA
:1050600090930E0480930D049093100480930F048A
:10507000909312048093110490931404809313046A
:10508000909316048093150490931804809317044A
:105090008091FB029091FC02A091FD02B091FE0272
:1050A0008D879E87AF87B88B7E01ADE0EA0EF11C3D
:1050B00064E0C7010E94F9078C01909393038093E9
:1050C000920388E0E3EFF2E0ACA5B8A901900D925D
:1050D0008A95E1F768E08CA598A90E94F90790935A
:1050E000790680937806D8015796ED91FC9141E9B5
:1050F00053E060E070E0CB010995E0919203F091FC
:1051000093030788F08DE02D40E953E061E070E003
:1051100080E090E0099548E250E060E270E08CE7C2
:1051200096E00E94AF3304E913E0EAAAFEAA4AE03F
:1051300050E060E270E0C8010E94AF33F8011386CE
:105140001286045F1F4FF3E0043F1F0781F781E4DD
:105150009EE3988F8F8B198EE0917806F0917906F7
:10516000018CF28DE02D4CE363E070E080E090E094
:105170000995E0917806F0917906018CF28DE02D89
:105180004FE564E070E080E090E009958E01095EF3
:105190001F4F63E0C8010E949F020E94FF084AE07F
:1051A00050E060E270E08AA99EA90E94AF3381E0DE
:1051B00090E0988F8F8B9A8F898F1C8EE12CF12C29
:1051C000412C512C32016E012CE1C20ED11C25E57F
:1051D000B301A201C8010E9443019601B301A201DB
:1051E000C8010E94DD00530142013FEF431A530AF8
:1051F000630A730A8C8D3C2C2D2C853509F0ACC0CC
:105200002AEAB501A401C8010E9443019601B50133
:10521000A401C8010E94DD008C8D8A3A09F09CC06F
:105220004FEFE41AF40AE11454E0F506C1F44AA978
:105230005EA9C301B2010E94C802F82E60E080E0BE
:105240000E94C7086AE08AA99EA90E94C2090E941A
:10525000D00A6F2D80E00E94C708E12CF12C411488
:10526000510484E06806710409F0B1CF81E00E9426
:10527000850B8BE0EFEFF2E0ACA5B8A901900D92A1
:105280008A95E1F76BE08CA598A90E94C2090E945B
:10529000D00A6DC03FEFC31AD30A0190F081E02D10
:1052A0003097C1F7C601DD0CAA0BBB0B8AAB9BABD9
:1052B000ACABBDABC12CD12C76018AA99BA9ACA902
:1052C000BDA9C816D906EA06FB0688F5B601C101D4
:1052D0000E94CD07DC011296AD90BC90842D0E94F7
:1052E000ED078C01FC019285D5011A968C911A97D5
:1052F000981327C0958955968C91981322C02AE05F
:10530000A5016AE0C8010E944E038115D1F0F501A4
:105310008485D8011C968C9385859685A785B08950
:10532000F80185879687A787B08B21E0268B9FEFB2
:10533000491A590A690A790A74CEF101C12CD12C93
:10534000AFCF3FEFC31AD30AE30AF30AB6CF0196F1
:105350000190F081E02D68CED501C4010196A11D18
:10536000B11D81159440A105B10508F07FCF82E001
:1053700090E090939F0480939E049093A104809367
:10538000A00488E70E949E030E949B08E091780693
:10539000F0917906018CF28DE02D4CE363E070E032
:1053A00080E090E0099587E0EAE0F3E0ACA5B8A9D9
:1053B00001900D928A95E1F767E08CA598A90E946B
:1053C000C20981E00E94850B86E70E940C0A60E01A
:1053D00070E0CB010E94400A8EE20E940C0A61E05C
:1053E00070E080E090E00E94400A8EE20E940C0A89
:1053F00060E070E0CB010E94400A0E94D00A80E089
:105400000E943A0C0E94D8038FA38EE388A762E023
:10541000CE0187960E949F0288E70E949E030E9409
:10542000D803B82EF8E58F130CC08DED90E0909363
:10543000A6048093A50483E491E09093A404809350
:10544000A304C12CD12C7601C394412C512C3201E0
:105450008091610190916201A0916301B09164011A
:105460000197A109B109481659066A067B0608F09A
:10547000AFC140E2C701B6010E94E9032FEF421A13
:10548000520A620A720A3FEFC31AD30AE30AF30A06
:1054900041E0C41640E8D406E104F104C9F68B2DBE
:1054A0000E949E03409061015090620160906301F0
:1054B000709064018CE0EBEAF2E0ACA5B8A9019031
:1054C0000D928A95E1F7ACA4B8A8C12CD12C760135
:1054D000D5014D915D01C701B6010E94E903BFEFFF
:1054E000CB1ADB0AEB0AFB0AECE0CE16D104E1048E
:1054F000F10471F747E460E170E080E090E00E9421
:10550000E90380E090E8A0E0B0E088A399A3AAA313
:10551000BBA35E01F0E2AF0EB11CAAAEBBAED501DB
:105520004D915D01C701B6010E94E903BFEFCB1A9F
:10553000DB0AEB0AFB0AE0E1CE16D104E104F10438
:1055400071F74C8E5D8E6E8E7F8EE32CF22C55E1C2
:10555000452E512C612C712CD7014D917D01C30139
:10556000B2010E94E903BFEF4B1A5B0A6B0A7B0A88
:10557000E9E14E1651046104710471F785E0E1E13F
:10558000F3E0DE011D9601900D928A95E1F7C0903F
:10559000A406D090A506E090A606F090A70610926B
:1055A000A4061092A5061092A6061092A70665E022
:1055B0008AA99EA90E94B9184B015C01C092A40659
:1055C000D092A506E092A606F092A7068F8A988E42
:1055D000A98EBA8E780141E1442E512C612C712C98
:1055E000D7014D917D01C301B2010E94E903BFEFD4
:1055F0004B1A5B0A6B0A7B0AE5E14E165104610403
:10560000710471F7F8E18F0E911CA11CB11C34E0FC
:10561000F32E40E0C501B4010E94E903FA942FEF94
:10562000821A920AA20AB20AF110F3CF0E94010F65
:105630008091160390911703A0911803B09119035C
:1056400088A399A3AAA3BBA364E08AAD9BAD0E94E3
:10565000B91885E0EAE1F3E0DE01579601900D927A
:105660008A95E1F765E0C8010E94B91860938B0341
:1056700070938C0380938D0390938E0364E08AADC6
:105680009BAD0E943814712C4DB75EB75BAB4AAB33
:10569000872D0E94DD076C01DC011A968C91811523
:1056A00009F4A2C0F60160E081916F5F803209F0D9
:1056B00098C028E230E040E050E0C6010E942C157E
:1056C000562E672E8C018091F5019091F601A091E4
:1056D000F701B091F80189839A83AB83BC834CA511
:1056E00058A9652D762DC8010E948710652D762D4D
:1056F000C8010E945C044B015C01EDB7FEB7E61BDC
:10570000F70B0FB6F894FEBF0FBEEDBF2DB73EB737
:105710002F5F3F4F7901F90180E090E020E288158A
:1057200099051A041B0408F4AAC18BE4D7018C93D1
:1057300084E411968C93119785E412968C931297BA
:1057400086E513968C9313979AE014969C9314977E
:1057500083E715968C9315978CE616968C9316977F
:105760008FE617968C93179784E718968C93189763
:105770008DE319968C931997F60184858F5C1A96A0
:105780008C931A971B969C931B9780E31C968C9383
:105790001C9788E71D968C93A701425F5F4F658534
:1057A0007685878590890E942B03652D762DC8010B
:1057B0000E947B05562E672E6C0195018401A7017E
:1057C0000E94FC05652D762DC6010E94D6050CC0F1
:1057D0004FE3C701B6010E94E903412C512C32016D
:1057E00052CE6A3009F060CF2AA93BA90FB6F894CF
:1057F0003EBF0FBE2DBF739435E0731245CF0E949C
:10580000010F80E29EE39DA38CA31EA28FEF89A7C8
:1058100011E6812F0E949E030E94D10F811132C197
:105820001F5F1636B1F788E70E949E030E94010FA2
:1058300089A58F3F09F03DC188E70E949E0388E556
:105840008CA363E0CE0184960E949F020E94010F08
:1058500080911F0390912003A0912103B091220316
:105860008C8F9D8FAE8FBF8F63E0832D922D0E9412
:105870009F13672B682B692B09F44DC064E0832DBF
:10588000922D0E943814C12CD12C760141E050E0B9
:105890004C0F5D1F4C0D5D1D8091A4069091A506D7
:1058A000A091A606B091A706BC01CD016D5E7F4F09
:1058B0008F4F9F4F6C0D7D1D8E1D9F1D0E940704F5
:1058C0004FEFC41AD40AE40AF40A54E0C516D1040E
:1058D000E104F104D9F689819A81AB81BC818EAB58
:1058E0009FABA8AFB9AF1CA61DA61EA61FA6DE01C2
:1058F0001D96BBA7AAA78CA59DA5AEA5BFA52EA941
:105900003FA948AD59AD82179307A407B50709F021
:10591000D8C00E94010F8CE693E79A8389831B828B
:105920004FE052E163E0CE0101960E94AF1083E6A2
:1059300094E69A8389831B8249E854E263E0CE01AE
:1059400001960E94AF1085E0E3E2F3E0DE011196DC
:1059500001900D928A95E1F742EF5AE065E0CE01A1
:1059600001960E94AF1086E0E8E2F3E0DE011196B6
:1059700001900D928A95E1F741E65CE066E0CE0188
:1059800001960E94AF100E94D00B8AE797E0909397
:105990005A018093590180E180936900EA9A8091CD
:1059A0008F03813099F081E080938F0381EA93E245
:1059B0009093600180935F0180EB92E290935E018F
:1059C00080935D0190935C0180935B018BE08093F9
:1059D000810082E080936F0027E831E030938900F6
:1059E000209388009CE095BD80936E0082E687BD81
:1059F00078948E01035F1F4FAE014F5F5F4F5BA72F
:105A00004AA7F8941D861982E0919203F0919303BE
:105A10000788F08DE02DA80160E070E0CB010995CA
:105A2000E0919203F09193030788F08DE02DAE0191
:105A30004F5F5F4F61E070E080E090E009958D85F9
:105A40006981909191035AA55CA7ABA5A8AB0CAF57
:105A50001DAF981304C090919003961771F0809336
:105A60009103609390030E945700811531F08131BA
:105A700009F051C1B1E0B09308047894C2CF2193EA
:105A800001964DCE19A71093330180912E0390916A
:105A90002F03A0913003B09131038093F4039093CE
:105AA000F503A093F603B093F70384E08093040416
:105AB000BACE0E949E03CE0189960E94B60289A5A5
:105AC000BFCEEDB7FEB7F9ABE8ABC090A406D0905F
:105AD000A506E090A606F090A706C114D104E10443
